:100000000C94A1060C94C9060C94C9060C94C9065C
:100010000C94C9060C94C9060C94C9060C94C90624
:100020000C94C9060C94C9060C94C9060C94C90614
:100030000C94C9060C94C9060C94C9060C94C90604
:100040000C94A5250C94C9060C9415260C94EF2548
:100050000C94C9060C94C9060C94C9060C94C906E4
:100060000C9447260C94C90605A84CCDB2D44EB9C1
:100070003836A9020C50B9918688083CA6AAAA2A4B
:10008000BE000000803F3B66773D003B6C656E67BD
:1000900074683D003B7374796C653D003B6C696D21
:1000A00069743D00494E464F3B7363616C653D008A
:1000B0004556454E543B434C454152006672656976
:1000C000206D616368656E210053656E736F7265A4
:1000D0006E004556454E543B424C4F434B45440001
:1000E0003B003B003B003B003B003B004441544194
:1000F0003B004556454E543B49444C45006B6D2FE3
:10010000680031383000313530003132300039305C
:100110000036300033300030006B6D2F68003C201B
:100120003C203C203C203C003E203E203E203E2007
:100130003E00434F554E54006B6D2F68006D6D00AF
:100140003C3C2D2D2D2D3E3E00313A004C454E4776
:1001500054483B006D6D003C200000000000003E54
:100160005B4F5B3E3E6B4F6B3E1C3E7C3E1C183C27
:100170007E3C181C577D571C1C5E7F5E1C00183C83
:100180001800FFE7C3E7FF0018241800FFE7DBE7CC
:10019000FF30483A060E2629792926407F050507B3
:1001A000407F05253F5A3CE73C5A7F3E1C1C08080F
:1001B0001C1C3E7F14227F22145F5F005F5F0609D4
:1001C0007F017F006689956A606060606094A2FF2D
:1001D000A29408047E040810207E201008082A1C1F
:1001E00008081C2A08081E101010100C1E0C1E0CEB
:1001F00030383E3830060E3E0E060000000000008B
:10020000005F00000007000700147F147F14242AF9
:100210007F2A1223130864623649562050000807CB
:100220000300001C2241000041221C002A1C7F1CEC
:100230002A08083E080800807030000808080808EE
:10024000000060600020100804023E5149453E0055
:10025000427F400072494949462141494D331814B3
:10026000127F1027454545393C4A49493141211102
:1002700009073649494936464949291E00001400F4
:100280000000403400000008142241141414141417
:10029000004122140802015909063E415D594E7C75
:1002A0001211127C7F494949363E414141227F412A
:1002B00041413E7F494949417F090909013E414188
:1002C00051737F0808087F00417F41002040413F73
:1002D000017F081422417F404040407F021C027F82
:1002E0007F0408107F3E4141413E7F090909063ED7
:1002F0004151215E7F0919294626494949320301A6
:100300007F01033F4040403F1F2040201F3F4038B7
:10031000403F631408146303047804036159494D92
:1003200043007F4141410204081020004141417FC8
:10033000040201020440404040400003070800203E
:10034000545478407F28444438384444442838443E
:1003500044287F385454541800087E090218A4A475
:100360009C787F0804047800447D40002040403D94
:10037000007F1028440000417F40007C047804780E
:100380007C080404783844444438FC1824241818A1
:10039000242418FC7C0804040848545454240404FD
:1003A0003F44243C4040207C1C2040201C3C4030EA
:1003B000403C44281028444C9090907C4464544C19
:1003C0004400083641000000770000004136080074
:1003D00002010204023C2623263C1EA1A161123A1E
:1003E0004040207A3854545559215555794122546A
:1003F000547842215554784020545579400C1E526F
:100400007212395555555939545454593955545413
:10041000580000457C410002457D420001457C407A
:100420007D1211127DF0282528F07C5455450020BE
:1004300054547C547C0A097F4932494949323A4430
:1004400044443A324A4848303A4141217A3A42409B
:100450002078009DA0A07D3D4242423D3D4040406D
:100460003D3C24FF2424487E4943662B2FFC2F2B40
:10047000FF0929F620C0887E0903205454794100E1
:1004800000447D413048484A32384040227A007A60
:100490000A0A727D0D19317D2629292F282629293E
:1004A000292630484D402038080808080808080860
:1004B000382F10C8ACBA2F102834FA00007B000087
:1004C00008142A142222142A14085500550055AA8B
:1004D00055AA55AAFF55FF55FF000000FF00101058
:1004E00010FF00141414FF001010FF00FF1010F094
:1004F00010F0141414FC001414F700FF0000FF00A7
:10050000FF1414F404FC141417101F10101F101FF4
:100510001414141F00101010F0000000001F101021
:1005200010101F10101010F010000000FF1010101D
:10053000101010101010FF10000000FF140000FF3A
:1005400000FF00001F10170000FC04F41414171023
:10055000171414F404F40000FF00F7141414141416
:100560001414F700F7141414171410101F101F148C
:100570001414F4141010F010F000001F101F0000ED
:10058000001F14000000FC140000F010F01010FF19
:1005900010FF141414FF141010101F00000000F0BE
:1005A00010FFFFFFFFFFF0F0F0F0F0FFFFFF000093
:1005B000000000FFFF0F0F0F0F0F3844443844FCBA
:1005C0004A4A4A347E02020606027E027E026355D1
:1005D0004941633844443C04407E201E2006027E8C
:1005E000020299A5E7A5991C2A492A1C4C7201729E
:1005F0004C304A4D4D303048784830BC625A463D08
:100600003E494949007E0101017E2A2A2A2A2A44BC
:10061000445F444440514A444040444A51400000F1
:10062000FF0103E080FF000008086B6B08361236FC
:100630002436060F090F06000018180000001010DD
:10064000003040FF0101001F01011E00191D17129B
:10065000003C3C3C3C0000000000000103070F1F71
:100660003F7F0080C0E0F0F8FCFEDB40A4A62EAF88
:100670002000A1C8D300408DAED580A80000600046
:1006800000000000000000000000000000E000008A
:10069000000000000000000000000001E000000079
:1006A0000000000000000000000001F00000000059
:1006B00000000000000000000003F0000000000047
:1006C000000000000000000007F000000000000033
:1006D0000000000000000007F8000000000000001B
:1006E0000000000000000FF800000003C0007E00C2
:1006F0000001E0007F0FF800000003C000FE0000D2
:1007000001E000FFEFF800000003C000FE00000160
:10071000E000FFFFF800000003C000F00000000F41
:10072000007FFE7FC0000003C000F00000000F004B
:100730003FFE7FF83FF1FBCFFCFEF3BC3DEFE01F37
:10074000FE7FFF7FFBFFDFFEFEFFBC3DEFE01FC62D
:10075000FFFF7FFBFFDFFEFEFFBC3DEFE00FE3C7C7
:10076000FE787BC3DE1EF0FFBC3DEF0007FF87FC79
:10077000787BC3DE1EF0F83C3DEF0001FFFFF00088
:100780007BC3C01EF0F03C3DEF0001F37FE03FFB78
:10079000C3CFFEF0F03C3DEF0003E33F807FFBC39F
:1007A000DFFEF0F03C3DEF0007E73C00787BC3DE66
:1007B0001EF0F03C3DEF0007FFBE00787BC3DE1E5D
:1007C000F0F03C3DEF0007FFFE00787BC3DE1EF03B
:1007D000F03C3DEF000FFFFE007FFBFFDFFEF0F07F
:1007E0003FFDEFE00FFFFF007FFBFFDFFEF0F03F7C
:1007F000FDEFE00FF9FF003E79F9CF9EF0F01F3DCD
:10080000E7E01FF1FF000000000000000000000012
:10081000001F80FF007FFFFFFFFFFFFFFFFFFFE0E4
:100820001C007F007FFFFFFFFEB46D888D18E00085
:10083000001F007FFFFFFFFE95AD7DB577E0000054
:100840000F007FFFFFFFFEA5AD9D8D19E0000006A4
:10085000007FFFFFFFFEB5ADEDB57EE000000000BC
:100860000001800000000000000000000380000084
:100870000000000000000007C000000000000000B1
:10088000000007C00000000000000000000FC000D2
:1008900000000000000000001FE000000000000059
:1008A0000000001FE00000000000000000003FE02A
:1008B0000000000000000000003FF0000000000009
:1008C000000000007FF0000000000000001FF87F23
:1008D000F0000000000000003FFE7FF0000000007C
:1008E0000000003FFF7FF0000000000000001FFF3D
:1008F000FBE0000000000000000FFFF9FFC0000057
:10090000000000000FFFF9FFF800000000000007E2
:10091000FFF1FFFF00000000000003FC73FFFF80F9
:10092000000000000001FE3FFFFF8000000000000B
:1009300000FF1E0FFF000000000000007FFE1FFCF4
:10094000000000000000003FFFFFF8000000000072
:1009500000000FDFFFE0000000000000001F19FF93
:10096000C0000000000000003F3CFF00000000004D
:100970000000007E7CF800000000000000007FFE08
:100980007C0000000000000000FFFFFC00000000F1
:1009900000000000FFFFFE0000000000000000FF5C
:1009A000FFFE0000000000000001FFEFFE0000005D
:1009B0000000000001FFCFFE000000000000000367
:1009C000FF07FE0000000000000003FC07FE00001F
:1009D000000000000003F003FE0000000000000023
:1009E000018000FE000000000000000000007E000A
:1009F0000000000000000000003E000000000000B9
:100A0000000000000C000000000000078000FC0057
:100A10000003C0000000078001FC000003C00000CC
:100A200000078001FC000003C0000000078001E017
:100A30000000001E000000078001E00000001E0012
:100A40007FE3F79FF9FDE7787BDFC0FFF7FFBFFD8E
:100A5000FDFF787BDFC0FFF7FFBFFDFDFF787BDF89
:100A6000C0F0F787BC3DE1FF787BDE00F0F787BC84
:100A70003DE1F0787BDE0000F787803DE1E0787BA8
:100A8000DE007FF7879FFDE1E0787BDE00FFF787E0
:100A9000BFFDE1E0787BDE00F0F787BC3DE1E07868
:100AA0007BDE00F0F787BC3DE1E0787BDE00F0F70D
:100AB00087BC3DE1E0787BDE00FFF7FFBFFDE1E0B2
:100AC0007FFBDFC0FFF7FFBFFDE1E07FFBDFC07C06
:100AD000F3F39F3DE1E03E7BCFC00000000000004B
:100AE0000000000000FFFFFFFFFFFFFFFFFFFFC050
:100AF000FFFFFFFFFD68DB111A31C0FFFFFFFFFDA5
:100B00002B5AFB6AEFC0FFFFFFFFFD4B5B3B1A3325
:100B1000C0FFFFFFFFFD6B5BDB6AFDC076004C6F23
:100B2000636F2053706565640000000000000000E2
:100B3000001FF0000000019FF7800000079FE7E022
:100B400000001F9FE7F800003F9FE7FC00007FCFF9
:100B5000CFF800003FCFCFF100013FCFCFF38003AC
:100B60009F801FE7C007CC000FCFE007E000079F82
:100B7000E00FE000003FF00FC000007FF01F80009A
:100B8000007FF80F00E0003FE00201F0003F80200E
:100B900003F8001E1C3807FF80087C3807FFE001BF
:100BA000FC3803FFF007FC3801FEF007FC38007C3E
:100BB0007007FC3800387007FC38003CF807FC0070
:100BC000001FFC07FC00001FFE07FC000007FF00E1
:100BD000003800003F80003800000FC0001C0000FB
:100BE00007E0001C000001F0001E000000F8000EED
:100BF0000000003E000C0000001F00000000000785
:100C000080000000000380000000000000535344F7
:100C10003133303620616C6C6F636174696F6E20A4
:100C20006661696C6564006B6D2F680000020000EE
:100C3000000100000000800000084000000403C024
:100C400000220FF000221FF801111008008910087F
:100C50000089100818489FF83C489FF83C489FF8C6
:100C6000184893C8008913C800891FF801111FF89C
:100C7000002208100022100800043FFC0008200495
:100C80000008000000010000000200005241444141
:100C900052004C494D4954005354594C453A5A4915
:100CA00046464552005354594C453A5A45494745E2
:100CB000520020313A00534554205343414C4500E3
:100CC0004556454E543B53544152543B52004556B1
:100CD000454E543B53544152543B4C0000000000DD
:100CE000240027002A0000000000250028002B0017
:100CF000000000002300260029000404040404046A
:100D000004040202020202020303030303030102BA
:100D10000408102040800102040810200102040889
:100D2000102000000008000201000003040700007A
:100D30000000000000003E20002200FF2100662786
:100D4000A02E11241FBECFEFD8E0DEBFCDBF11E033
:100D5000A0E0B1E0E0E9F9E602C005900D92A43C04
:100D6000B107D9F723E0A4ECB1E001C01D92A73987
:100D7000B207E1F716E0C0EAD6E004C02197FE0111
:100D80000E94A332CF39D107C9F70E94EA270C94F9
:100D9000BB340C9400000895833081F028F4813036
:100DA00099F08230A9F008958730A9F08830C9F011
:100DB0008430B1F4809180008F7D03C080918000E9
:100DC0008F7780938000089584B58F7784BD0895D0
:100DD00084B58F7DFBCF8091B0008F778093B0007A
:100DE00008958091B0008F7DF9CFCF93DF93282FA6
:100DF00030E0F901EE5DF24F8491F901E25FF24FCC
:100E0000D491F901E650F34FC491CC23A1F08111A4
:100E10000E94CC06EC2FF0E0EE0FFF1FE051F34FE5
:100E2000A591B491EC91ED2381E090E009F480E08C
:100E3000DF91CF91089580E090E0FACF1F93CF9398
:100E4000DF93282F30E0F901EE5DF24F8491F90134
:100E5000E25FF24FD491F901E650F34FC491CC23F5
:100E6000A9F0162F81110E94CC06EC2FF0E0EE0FB6
:100E7000FF1FEA51F34FA591B4918FB7F894EC910D
:100E8000111108C0D095DE23DC938FBFDF91CF9185
:100E90001F910895DE2BF8CFCF93DF9390E0FC01F4
:100EA000E25FF24F24918650934FFC018491882396
:100EB000D1F090E0880F991FFC01E452F34FA59107
:100EC000B491FC01EA51F34FC591D491623071F4B1
:100ED0009FB7F8943C91822F809583238C93E8816F
:100EE0002E2B28839FBFDF91CF9108958FB7F89461
:100EF000EC912E2B2C938FBFF6CF3FB7F8948091B7
:100F0000A2029091A302A091A402B091A50226B5DD
:100F1000A89B05C02F3F19F00196A11DB11D3FBF31
:100F2000BA2FA92F982F8827BC01CD01620F711D00
:100F3000811D911D42E0660F771F881F991F4A95FA
:100F4000D1F708958F929F92AF92BF92CF92DF9286
:100F5000EF92FF924B015C010E947D076B017C01C7
:100F60000E947D076C197D098E099F09683E7340B8
:100F700081059105A8F321E0821A9108A108B10822
:100F800088EEC80E83E0D81EE11CF11C8114910488
:100F9000A104B10429F7FF90EF90DF90CF90BF90AC
:100FA000AF909F908F9008952FB7F89460919E0214
:100FB00070919F028091A0029091A1022FBF08958D
:100FC00008950895DC01ED91FC910190F081E02DF0
:100FD0000994EF92FF920F931F93CF93DF938C01AD
:100FE0007B01D0E0C0E0F701EC0FFD1F64916623A8
:100FF00061F0D801ED91FC910190F081E02DC801E4
:101000000995892B11F02196EECFCE01DF91CF917A
:101010001F910F91FF90EF900895AF92BF92CF92E2
:10102000DF92EF92FF920F931F93CF93DF936C01A8
:101030007B018B01040F151FEB015E01AE18BF0889
:10104000C017D10759F06991D601ED91FC9101903B
:10105000F081E02DC6010995892B79F7C501DF9153
:10106000CF911F910F91FF90EF90DF90CF90BF90A5
:10107000AF900895FC01538D448D252F30E0842FCF
:1010800090E0821B930B541710F0CF9608950197B0
:101090000895FC01918D828D981761F0A28DAE0F9D
:1010A000BF2FB11D5D968C91928D9F5F9F73928F24
:1010B00090E008958FEF9FEF08950F931F930E9484
:1010C000D4076093B2027093B3028093B4029093FA
:1010D000B5028AEA92E00E94490897FF1DC00E946B
:1010E000D4070091B2021091B3022091B402309162
:1010F000B502601B710B820B930B0091AE02109135
:10110000AF022091B0023091B102601771078207DF
:101110009307F8F28FEF9FEF1F910F910895FC0155
:10112000918D828D981731F0828DE80FF11D858D9C
:1011300090E008958FEF9FEF0895FC01918D228D2F
:10114000892F90E0805C9F4F821B91098F739927B4
:1011500008958AEA92E00E949D0821E0892B09F413
:1011600020E0822F089580E090E0892B29F00E94F2
:10117000A90881110C9400000895FC01A48DA80F0A
:10118000B92FB11DA35ABF4F2C91848D90E00196C9
:101190008F739927848FA689B7892C93A089B189E9
:1011A0008C91837080648C93938D848D981306C08A
:1011B0000288F389E02D80818F7D80830895EF92EE
:1011C000FF920F931F93CF93DF93EC0181E0888F01
:1011D0009B8D8C8D98131AC0E889F989808185FFD1
:1011E00015C09FB7F894EE89FF896083E889F98973
:1011F00080818370806480839FBF81E090E0DF9175
:10120000CF911F910F91FF90EF900895F62E0B8DC7
:1012100010E00F5F1F4F0F731127E02E8C8D8E1182
:101220000CC00FB607FCFACFE889F989808185FFE9
:10123000F5CFCE010E94BD08F1CFEB8DEC0FFD2F55
:10124000F11DE35AFF4FF0829FB7F8940B8FEA89A4
:10125000FB8980818062CFCFCF93DF93EC01888DB3
:101260008823B9F0AA89BB89E889F9898C9185FD21
:1012700003C0808186FD0DC00FB607FCF7CF8C91AF
:1012800085FFF2CF808185FFEDCFCE010E94BD08A2
:10129000E9CFDF91CF910895EF92FF920F931F93C3
:1012A000CF93DF93EC01EC80FD806E157F050CF091
:1012B00070C057FF04C0240F351F50E040E08E81FE
:1012C0009F81FA01E20FF31F8E179F071CF49C0108
:1012D000241B350B121613060CF05BC0922F842FC3
:1012E0008695869586958E9DD0018F9DB00D112493
:1012F0006A0F7B1FAF8DB8A1A60FB71F477049F1CA
:1013000088E0841B482F682F70E0FB01EE59F94FED
:10131000E491281708F063C0621B71092FEF30E0D9
:1013200002C0359527956A95E2F7E2230130110551
:1013300039F0B0F10230110561F58C91E82702C057
:101340008C91E82BEC93941720F12C813D81A20F16
:10135000B31FE92FE41BE83078F00230110521F5C6
:101360008E2F9C9190959C932C813D81A20FB31F51
:1013700088508830B0F7E770EE2359F0F0E0E65A75
:10138000F94FE49101301105F9F010F10230110527
:1013900019F1DF91CF911F910F91FF90EF90089578
:1013A000E0958C91E823CECF81E00115110509F479
:1013B00080E081959E2F8C932C813D81A20FB31FDD
:1013C00098509830C0F7D7CF8C91E82BEC93E1CFB1
:1013D000E0958C91E823FACF8C91E827F7CF013084
:1013E000110509F4ADCFE0F20230110509F4A5CFE3
:1013F000AE0DBF1DAECF0F931F93CF93DF9377FF3B
:1014000004C0260F371F70E060E0DC011496CD9118
:10141000DC91FB01E20FF31FCE17DF071CF49E01E6
:10142000261B370B121613064CF5FA0157FD37969B
:10143000A3E0F595E795AA95E1F7EC9FD001ED9F24
:10144000B00DFC9FB00D11246A0F7B1FDC015F966D
:10145000ED91FC91E60FF71F4770552781E090E072
:1014600001C0880F4A95EAF7482F0130110559F05D
:10147000A8F02E0F3F1F02301105E1F0DF91CF9150
:101480001F910F9108952E0F3F1FE217F307B1F33D
:101490008191DF011197842B8C93F7CF80952E0FCC
:1014A0003F1FE217F30751F39191DF011197982342
:1014B0009C93F7CFE217F30709F38191DF011197AE
:1014C00084278C93F7CF0F931F93FA01DC01569674
:1014D0004C9156974230E9F04330A1F1413061F52B
:1014E00014964D915C91DA01AE1BBF0BFD01E21B1E
:1014F000F30B77FD0BC0DC0116964D915C916417E0
:10150000750724F4AB01BF010E94FB091F910F91E5
:10151000089514964D915C91DA01A61BB70BBD019D
:1015200061507109DC0116964D915C91DA01AE1B98
:10153000BF0BFD01E21BF30B77FDE8CFAF010E946B
:101540004C09E4CF16964D915C91DA01A61BB70BBE
:10155000BD0161507109CDCF0F931F93FA01DC01DA
:1015600056964C9156974230A9F0433091F1413054
:1015700019F514964D915C91DA01AE1BBF0BFD017C
:101580003197F7FD04C0AB01BF010E944C091F91C8
:101590000F91089514964D915C91DA01A61BB70B3B
:1015A000BD01DC0116964D915C91DA01AE1BBF0BBB
:1015B000FD013197621B730BF7FDE9CFDC01169635
:1015C0004D915C91E417F50714F7AF010E94FB09F8
:1015D000DECF16964D915C91DA01A61BB70BBD01CB
:1015E000621B730BCECFFC0177FD64C080859185B3
:1015F000681779070CF05EC057FD5CC08285938543
:10160000481759070CF056C086898230B1F08330F4
:1016100029F1813041F484819581841B950BAB01C4
:10162000BC01615071092130310509F108F443C052
:101630002230310509F463C0089584819581DC016D
:10164000A61BB70BBD016150710986819781DC0132
:10165000A41BB50BAD0141505109E5CF868197819F
:10166000861B970BBA01AC0141505109DCCFCA016E
:1016700057FD0796A3E095958795AA95E1F7A48174
:10168000B5818A9F90018B9F300D9A9F300D112458
:10169000620F731F078CF0A1E02DE60FF71F477054
:1016A000552721E030E001C0220F4A95EAF78081FA
:1016B000822B80830895CA0157FD079633E09595E4
:1016C00087953A95E1F7A481B5818A9F90018B9F18
:1016D000300D9A9F300D1124620F731F078CF0A1FB
:1016E000E02DE60FF71F4770552781E090E001C01D
:1016F000880F4A95EAF7809590818923DACFCA014D
:1017000057FD079623E0959587952A95E1F7A481E3
:10171000B5818A9F90018B9F300D9A9F300D1124C7
:10172000620F731F078CF0A1E02DE60FF71F4770C3
:10173000552721E030E001C0220F4A95EAF7808169
:101740008227B7CF08958EBD00000DB407FEFDCFF0
:101750008EB508958CBD9DBD08950895FC016370FC
:10176000668B8481958126813781613039F06330C1
:1017700029F09187808733872287089531872087D2
:101780009387828708952F923F924F925F926F9234
:101790007F928F929F92AF92BF92CF92DF92EF9201
:1017A000FF920F931F93CF93DF93CDB7DEB76A9766
:1017B0000FB6F894DEBF0FBECDBF9A8F898F7A83A4
:1017C00069834A01D22E18870F833701BC2CDC01B4
:1017D00059962D913C915A972115310509F015C163
:1017E00018968D919C911997681779070CF0D7C1BD
:1017F0001A968D919C91481759070CF0D0C14C2C2A
:10180000512CB6E0CB9E600D711D11247C876B8737
:10181000161617060CF0C3C1EA2DF0E0FA87E98727
:1018200093E0EE0FFF1F9A95E1F7F88BEF87CF015A
:10183000840F951F181619060CF0B1C1A98DBA8D29
:1018400058968C91811104C0BFEABD1508F4D39459
:10185000A98DBA8DED91FC9111970284F385E02D4D
:10186000CD010995B5E0DB9EC0011124E981FA8123
:10187000FC83EB83312C212C9C01265A3E4F388F60
:101880002F8B4A2D50E05E8B4D8BEF89F88DE20D4A
:10189000F31D44919E828D82D12CC12C69817A8165
:1018A000620D731D7A8B698B842F90E09C8B8B8BE0
:1018B000E98DFA8DA081B18140FF82C0F1E0BF12B5
:1018C0006FC0AF126DC01C96ED91FC912F813885D1
:1018D000A4014C0D5D1D69897A89898D9A8D0995C0
:1018E000EB89FC89F595E7954E2F5FEFC51AD50A70
:1018F0006D817E818D899E89680F791F7E836D83BE
:1019000098E0C916D10481F6AFEF2A1A3A0AEB81A2
:10191000FC81E40DF51DFC83EB83F5E02F1631040B
:1019200009F0B3CF2F81388526153705B9F0A98D79
:10193000BA8DED91FC91B1E0BB1257C0AB1255C00E
:1019400069817A816B5F7F4F0088F189E02D830187
:1019500028E030E0A401898D9A8D0995A98DBA8D72
:10196000ED91FC9111970688F789E02DCD016A96DB
:101970000FB6F894DEBF0FBECDBFDF91CF911F91A0
:101980000F91FF90EF90DF90CF90BF90AF909F901E
:101990008F907F906F905F904F903F902F90099421
:1019A0001E96ED91FC91EF80F88409851A859201CD
:1019B0004D815E816B817C81898D9A8D099590CF57
:1019C0002F8138852615370509F48ACF31E0B31207
:1019D00007C0A31205C01C96ED91FC91930178CF2E
:1019E0001E96ED91FC917301E0CF6B857C856419A7
:1019F00075090684F785E02D73010F85188992011A
:101A0000A401898D9A8D0995A9CFF90134969491F5
:101A1000329745915491D91AB7E0DB9E400D511D84
:101A20001124F901259134913C8B2B8BFA012590DF
:101A30003490FA013296749031963491398B329603
:101A400064903196449041E04C1518F04A1508F026
:101A50007FC0662D062C000C770B7C836B83842D56
:101A6000042C000C990B9E838D83A98DBA8DED916A
:101A7000FC9111970284F385E02DCD010995512C3D
:101A8000D12CC12CEA2DF0E0FA87E9872B2D30E02C
:101A90003C872B87A401440D511D47FC5A95588F54
:101AA0004F8B69817A81660D711D67FC7A957E87FF
:101AB0006D877989C71608F051CF2C2D30E04D8104
:101AC0005E81420F531FA985BA854A9FC0014B9F73
:101AD000900D5A9F900D1124FC01E80DF91DF88B13
:101AE000EF87852D612C4F89588D420F531F5E8BD8
:101AF0004D8B671408F050C044244394480E8770FF
:101B000041F4C1010196EB89FC89E20DF31DD490EB
:101B10001C01D7FE19C0A98DBA8DED91FC91662DDF
:101B200070E0B1E0BB1219C0AB1217C02D853E8525
:101B3000620F731F0484F585E02D2F8138854D8950
:101B40005E89898D9A8D0995DD0C6394842DD1CFA2
:101B50001E821D821C821B8288CF4B815C81640F98
:101B6000751FAB85BC856A9FC0016B9F900D7A9FE6
:101B7000900D112469817A81680F791F0684F78599
:101B8000E02DEF80F88409851A859D014F855889DD
:101B9000898D9A8D0995D8CF570CC3948ACF6A96B0
:101BA0000FB6F894DEBF0FBECDBFDF91CF911F916E
:101BB0000F91FF90EF90DF90CF90BF90AF909F90EC
:101BC0008F907F906F905F904F903F902F900895EF
:101BD0008F929F92AF92CF92EF92FF920F931F93AB
:101BE000CF93DF93EC01262F898D9A8D009709F012
:101BF00051C06A30D1F41D861C868D8948E0849FCF
:101C0000900111248E859F85820F931F9F878E8759
:101C100081E090E0DF91CF911F910F91FF90EF90C5
:101C2000CF90AF909F908F9008956D3089F3CC88BE
:101C3000AD888F898823C1F08C859D8536E0C39E51
:101C4000800D911D1124488559854817590764F462
:101C50004E855F851D861C8638E0A39EC001112439
:101C6000840F951F9F878E87EA88FB8808891989CA
:101C70004E855F856C857D85CE010E94C30B2C89C6
:101C80008C859D8546E0249F800D911D11249D87A4
:101C90008C87BECF6A3069F41D861C86FC0138969D
:101CA000E4912D898E859F85E29F800D911D1124E1
:101CB000ADCF6D3009F4ACCFFC013496349163178D
:101CC00008F4A6CF3296E491E61708F4A1CFFC0100
:101CD000329685909490462F431B342F47E0349FD3
:101CE000800C911C1124F401329634913196E491C8
:101CF0003323A9F1EE2399F1CC88F4013596E491D0
:101D0000AD884F89442301F10E2E000CFF0BE30F29
:101D1000F11DCE9EA001CF9E500D11246C857D85B6
:101D2000460F571F68857985641775076CF44E85D3
:101D30005F851D861C86FC013896E491AE9E400DA1
:101D4000511D11245F874E87EA88FB88088919890D
:101D50004E855F856C857D85CE010E94C30BF401A5
:101D60003496E4912C898C859D85E29F800D911D90
:101D700011248DCF6F927F928F929F92AF92BF92DC
:101D8000CF92DF92EF92FF920F931F93CF93DF9347
:101D9000EC016B015A0139014801E881F9810284A3
:101DA000F385E02D0995E881F9810288F389E02D1A
:101DB00087019301A501B601CE010995A501480D42
:101DC000591D41505109E881F9810288F389E02DBC
:101DD0009301B601CE010995E881F9810088F18966
:101DE000E02D9401A501B601CE010995C60CD71CC2
:101DF000B60161507109E881F9810088F189E02D0F
:101E00009401A501CE010995E881F9810688F78939
:101E1000E02DCE01DF91CF911F910F91FF90EF90B8
:101E2000DF90CF90BF90AF909F908F907F906F90FA
:101E300009946F927F928F929F92AF92BF92CF92AE
:101E4000DF92EF92FF920F931F93CF93DF935C018A
:101E5000EB016A01490138018701DC01ED91FC9138
:101E60006217730719F5641675062CF0962D872DE9
:101E70003A01C92ED82E9601261937092F5F3F4FF8
:101E8000048CF58DE02DA301BE01C5010995DF91FC
:101E9000CF911F910F91FF90EF90DF90CF90BF9067
:101EA000AF909F908F907F906F9008954615570543
:101EB00091F42617370724F0892D4B01C22FD82F14
:101EC0009E01281939092F5F3F4F068CF78DE02DB1
:101ED000A601B401DACF0284F385E02D0995D5017E
:101EE000ED91FC910488F589E02D83019401A60110
:101EF000BE01C5010995D501ED91FC910688F789D0
:101F0000E02DC501DF91CF911F910F91FF90EF90D0
:101F1000DF90CF90BF90AF909F908F907F906F9009
:101F20000994EF92FF920F931F93DC011A960D9183
:101F30001C911B9718962D913C911997ED91FC914E
:101F400000A0F1A1E02D7B0150E040E070E060E0F6
:101F500009951F910F91FF90EF9008954F925F9216
:101F60006F927F928F929F92AF92BF92CF92DF92A9
:101F7000EF92FF920F931F93CF93DF936C012B018E
:101F80005A0139014801DC01ED91FC910284F3858D
:101F9000E02D0995E201640C751CD601ED91FC91D0
:101FA000C615D7055CF40088F189E02D87019401FE
:101FB000A501BE01C60109952196EFCF0688F789D4
:101FC000E02DC601DF91CF911F910F91FF90EF900F
:101FD000DF90CF90BF90AF909F908F907F906F9049
:101FE0005F904F9009948F929F92AF92BF92CF9241
:101FF000DF92EF92FF920F931F93CF93DF93EC0149
:102000005B014A016901E881F9810284F385E02DD1
:10201000099595012C0D3D1D21503109E881F9816B
:102020000488F589E02D78018401A401B501CE0171
:102030000995E881F9810688F789E02DCE01DF91C5
:10204000CF911F910F91FF90EF90DF90CF90BF90B5
:10205000AF909F908F9009948F929F92AF92BF9272
:10206000CF92DF92EF92FF920F931F93CF93DF9364
:10207000EC015B014A0169017801E881F981028480
:10208000F385E02D0995C80CD91C86010150110972
:10209000E881F9810488F589E02D9501A401B50155
:1020A000CE010995E881F9810688F789E02DCE01F6
:1020B000DF91CF911F910F91FF90EF90DF90CF9024
:1020C000BF90AF909F908F900994EF92FF920F93E3
:1020D0001F93DC01ED91FC9100A0F1A1E02D099589
:1020E0001F910F91FF90EF9008950F931F93DC01C4
:1020F000ED91FC91068CF78DE02D09951F910F91C4
:1021000008952F923F924F925F926F927F928F929B
:102110009F92AF92BF92CF92DF92EF92FF920F9376
:102120001F93CF93DF93CDB7DEB7A4970FB6F89484
:10213000DEBF0FBECDBF7CA36BA32A0169013801AE
:102140005701261737070CF082C1E616F7060CF484
:1021500095C1621773075CF03BA12CA1DCA2CBA256
:10216000C32ED22E382F292FC201432E522E2BA13F
:102170003CA12A153B05E1F54816590654F0382FC5
:10218000292F8415950514F4342D252D2C01832F2A
:10219000922F641475042CF0861597050CF4C30176
:1021A0003201861997099C012F5F3F4F01E010E033
:1021B0004BA15CA1B30183E593E00E947510A49646
:1021C0000FB6F894DEBF0FBECDBFDF91CF911F9148
:1021D0000F91FF90EF90DF90CF90BF90AF909F90C6
:1021E0008F907F906F905F904F903F902F900895C9
:1021F000362D272D3C01832F922F3A2D2B2DABA06E
:10220000BCA03BA32CA3920126193709A6014A19A9
:102210005B09BC01661977097A8B698BABA1BCA1FC
:10222000AA19BB09BE83AD834C01841895086BA124
:102230007CA16C197D097E876D878BA19CA1EBA089
:10224000FCA08C159D0521F0760191E0E91AF108BA
:10225000150119861A861B861C8619821A821B8212
:102260001C8269897A89072E000C880B990B6B8B6D
:102270007C8B8D8B9E8BCA01550FAA0BBB0B8F8B52
:10228000988FA98FBA8F4D815E81052E000C660B49
:10229000770B4B8F5C8F6D8F7E8FB901330F880B5F
:1022A000990B6F8F78A389A39AA3E214F3040CF41B
:1022B0005CC069817A818B819C812F89388D498DA1
:1022C0005A8D0E9431308301020F131F69857A8570
:1022D0008B859C852B8D3C8D4D8D5E8D0E94313084
:1022E000B301620F731F89819A81AB81BC812F8DED
:1022F00038A149A15AA1820F931FA41FB51F89833A
:102300009A83AB83BC8389859A85AB85BC852B89F1
:102310003C894D895E89820F931FA41FB51F898751
:102320009A87AB87BC87601771072CF0962F872F91
:10233000B801092F182F9801261B370B2F5F3F4F2D
:1023400001E010E0A10183E593E00E9475103FEFEA
:10235000231A330AAACF342D252D2C01832F922F37
:102360003BA12CA1DCA2CBA295C0A401092C000C9E
:10237000660B770B49835A836B837C8391012C19FD
:102380003D09D4010E9480326B017C0191012A1920
:102390003B09A989BA890E9480324B015C016D8595
:1023A0007E85072E000C880B990B6D877E878F87A3
:1023B000988B8D819E81092E000CAA0BBB0B8D83FF
:1023C0009E83AF83B887ABA1BCA1A215B3050CF463
:1023D000F6CEC701B6012D853E854F8558890E94EE
:1023E00031308201020F131FC501B4012D813E81DE
:1023F0004F8158850E943130B301620F731F2981CC
:102400003A814B815C81C20ED31EE41EF51E8B897E
:102410009C89AD89BE89880E991EAA1EBB1E6017B5
:1024200071072CF0962F872FB801092F182F9801CC
:10243000261B370B2F5F3F4F01E010E0A10183E522
:1024400093E00E9475109FEF291A390ABCCFE2165B
:10245000F3060CF08CCEABA1BCA1EA16FB060CF483
:102460007ACF272D3A012C01802F922F3C2D2D2D34
:102470006D01FCA2EBA2A32EB22E6ECEE216F306E5
:102480000CF4C1CE362D272D3201432E522E3A2D7B
:102490002B2D5601C32ED22EB6CE0F931F93DC01E7
:1024A000ED91FC91048CF58DE02D09951F910F9114
:1024B0000895DC01ED91FC910084F185E02D0994F3
:1024C0003F924F925F926F927F928F929F92AF92C4
:1024D000BF92CF92DF92EF92FF920F931F93CF9311
:1024E000DF9300D000D0CDB7DEB75C013B016A01BD
:1024F0004901280187E0480E511C93E05594479408
:102500009A95E1F7CA018E0D9F1D9A838983F12C5C
:10251000E12C312C1C821B828B819C818770992736
:10252000330C892B61F4EB81FC8183E0F595E79511
:102530008A95E1F7EE0DFF1DE80DF91D349037FE89
:102540000AC021E030E0A6016B817C81660D771D19
:10255000C5010E9459128B819C8101969C838B83BB
:1025600008171907C9F69FEFC91AD90AE40CF51C18
:1025700089819A81C816D90669F60F900F900F903D
:102580000F90DF91CF911F910F91FF90EF90DF900F
:10259000CF90BF90AF909F908F907F906F905F9003
:1025A0004F903F9008952F923F924F925F926F927B
:1025B0007F928F929F92AF92BF92CF92DF92EF92D3
:1025C000FF920F931F93CF93DF93EC0101E010E094
:1025D000081B190BCC24DD24C81AD90ACC0CDD1C2D
:1025E00066246394712CF12CE12C2EE3422E512CA5
:1025F00030E4232E312C17FD06C0219782E0C80E4F
:10260000D11C0C0D1D1D8FEFE81AF80A82E0680E30
:10261000711C060D171DB701605C7F4F21E030E093
:102620005201AC1ABD0AA50183E593E00E9459123C
:1026300042018E189F0821E030E0A401BE01605CD9
:102640007F4F83E593E00E94591221E030E0A4011E
:10265000B1016C1B7D0B83E593E00E945912B1011F
:102660006E197F0921E030E0A50183E593E00E9427
:102670005912EC16FD060CF4BECFDF91CF911F91DD
:102680000F91FF90EF90DF90CF90BF90AF909F9011
:102690008F907F906F905F904F903F902F90089514
:1026A0002F923F924F925F926F927F928F929F9262
:1026B000AF92BF92CF92DF92EF92FF920F931F9350
:1026C000CF93DF9300D000D000D0CDB7DEB73C0170
:1026D0006A013E832D83FC82EB825801A41AB50A5D
:1026E000B7FE03C0B194A194B1088D809E80861A74
:1026F000970A97FE03C09194819491088A149B04D1
:102700005CF0902F812F0D811E819D838E839C2DE7
:102710008D2D6B01692F782F0C151D055CF09D81A7
:102720008E817E836D83692F782F902F812F860174
:10273000C92ED82E1601201A310A2B012D813E8177
:10274000421A530A57FE03C0519441945108710133
:1027500037FE03C03FEFE31AF30AF594E7948D8147
:102760009E81861797075CF5A1E0B0E0BA83A98344
:10277000C016D1064CF1D301ED91FC910484F5858E
:10278000E02D2B813C81A8016D817E818A149B0400
:102790001CF04D815E81B801C3010995E418F5086C
:1027A000F7FE0AC02D813E8189819A81280F391F49
:1027B0003E832D83E20CF31C0F5F1F4FD9CF2FEF09
:1027C0003FEF3A832983D4CF26960FB6F894DEBF25
:1027D0000FBECDBFDF91CF911F910F91FF90EF9072
:1027E000DF90CF90BF90AF909F908F907F906F9031
:1027F0005F904F903F902F900895089520913E0252
:10280000260F3327331F21323105ECF42091620269
:10281000FC0190E080E0243069F082E00895A0910E
:102820003E022191AC01425E5D4FA40FB52FB11D58
:102830002C930196861798F380913E02680F60935F
:102840003E0280E0089581E008951092620281E0E6
:10285000809364021092630261E082E10E941E078D
:1028600061E083E10E941E07E9EBF0E080818E7F4A
:10287000808380818D7F808388E48093B80085E4A5
:102880008093BC000895CF93DF9391E090931D0255
:102890008823B9F0C091B800D091BA008091BC00F3
:1028A0008A7B8093BC0060E082E10E941E0760E0AA
:1028B00083E10E941E070E942514D093BA00C093A2
:1028C000B800DF91CF910895E0918E0280918D0242
:1028D000E81730F4F0E0E850FE4F808190E0089572
:1028E0008FEF9FEF089590918E0280918D022FEFD0
:1028F0003FEF981748F4E92FF0E0E850FE4F2081B1
:1029000030E09F5F90938E02C901089580918D02FF
:1029100090918E02891B990B0895CF92DF92EF92CE
:10292000FF920F931F93CF93DF937C01CB018A011A
:102930002091A902222389F0EB016B01C40ED51E60
:10294000CC15DD0569F06991D701ED91FC910190FD
:10295000F081E02DC7010995F3CF642F0E94FE138B
:10296000C801DF91CF911F910F91FF90EF90DF9001
:10297000CF900895CF93DF931F92CDB7DEB76983D1
:102980002091A9022223F9F02091A602203258F0CA
:1029900021E030E0FC013383228390E080E00F905F
:1029A000DF91CF9108958091A702E82FF0E0E852DF
:1029B000FE4F998190838F5F8093A7028093A60238
:1029C00081E090E0ECCF61E0CE0101960E94FE1321
:1029D000F7CFCF92DF92EF92FF920F931F93CF9397
:1029E000DF93D091A60281E0D13208F09CC0C09163
:1029F000A8020E947D076B017C0180916202811117
:102A00006CC082E08093620281E0809364028FEF69
:102A10008093610210928602D0938502A8EDB1E006
:102A2000E5E6F2E080E0D8138DC010928702809135
:102A30008702CC0FC82BC09387028091630281303C
:102A400009F084C0109263020E947D076B017C0133
:102A5000809187028093BB008091190290911A02A5
:102A6000A0911B02B0911C02892B8A2B8B2BA1F009
:102A70000E947D070091190210911A0220911B02F9
:102A800030911C026C197D098E099F0906171707E2
:102A90002807390708F442C08091BC0083FDD8CFD5
:102AA00085EC8093BC000E947D076B017C018091C6
:102AB0006202823009F44CC0809161028F3F09F4B8
:102AC00069C080916102803209F466C08091610220
:102AD000803309F463C084E026C08091190290918C
:102AE0001A02A0911B02B0911C02892B8A2B8B2BFE
:102AF00009F483CF0E947D070091190210911A02F8
:102B000020911B0230911C026C197D098E099F09CE
:102B1000061717072807390708F06FCF80911802AA
:102B20000E94431485E01092A7021092A602109210
:102B3000A902DF91CF911F910F91FF90EF90DF904D
:102B4000CF9008959D9191938F5F6DCF85EEA9CF22
:102B50008091190290911A02A0911B02B0911C025F
:102B6000892B8A2B8B2B09F4A2CF0E947D07009121
:102B7000190210911A0220911B0230911C026C194B
:102B80007D098E099F09061717072807390708F0DE
:102B90008ECFC4CF80E0C7CF82E0C5CF83E0C3CF64
:102BA000EF92FF920F931F93CF93DF937C01C62F79
:102BB0008091700390917103009709F459C020919E
:102BC000740331E03093A9022093A8021092A70267
:102BD0001092A602DC01ED91FC910190F081E02DB4
:102BE00060E009958701EE24E394F12CD1E0C15017
:102BF0008091700390917103CF3F91F1B0E2EB1699
:102C0000F104D8F00E94E91480917003909171034F
:102C100020917403D093A9022093A8021092A702D6
:102C20001092A602DC01ED91FC910190F081E02D63
:102C300060E00995EE24E394F12C8091700390916B
:102C40007103F8016491DC01ED91FC910190F08138
:102C5000E02D0995BFEFEB1AFB0A0F5F1F4FC7CF9F
:102C6000DF91CF911F910F91FF90EF900C94E91499
:102C7000E0918003F091810390818091860380959B
:102C8000892380838701C15008F438C0F8018491FA
:102C900020916E0330916F03232B29F00E94A30B28
:102CA0000F5F1F4FF0CF28E030E040E8E0917C0359
:102CB000F0917D0390918403582F5423D9F05081D3
:102CC000952B9083E0917E03F0917F03908150914A
:102CD0008503952B9083E0917E03F0917F035081D3
:102CE00090918503909595239083469521503109C5
:102CF000E9F6D6CF508190959523E3CFDF91CF9120
:102D00001F910F91FF90EF9008951F93CF93DF9342
:102D1000EC018D8D9E8D009721F1162F29A131E0B8
:102D20003093A9022093A8021092A7021092A60243
:102D3000DC01ED91FC910190F081E02D60E00995BE
:102D40008D8D9E8DDC01ED91FC910190F081E02D47
:102D5000612F09958D8D9E8DDF91CF911F910C94E0
:102D6000E914ADA5BEA59C918BA9809589238C9370
:102D70008B8D9C8D892B31F0862FDF91CF911F9108
:102D80000C94A30B28E030E080E8A9A5BAA599A986
:102D9000462F4823C1F04C91942B9C93ABA5BCA526
:102DA0009C914AA9942B9C93ABA5BCA54C919AA944
:102DB000909594239C9386952150310931F7DF91AA
:102DC000CF911F9108954C9190959423E6CFDF9277
:102DD000EF92FF920F931F93CF93DF938091700335
:102DE00090917103892B09F4A5C02091880330913B
:102DF000890340918A0350918B0360E074E284EF71
:102E000090E00E94873020513109410951095695BF
:102E10004795379527952093B80064E089E39DE0B6
:102E20000E94D015809157039091580380349105EA
:102E300009F097C060E283E593E00E9485166091F7
:102E40005703615E83E593E00E9485162091590344
:102E500030915A03C901079697FD079633E095957F
:102E600087953A95E1F72091570330915803829F57
:102E70008001839F100D929F100D1124C091720349
:102E8000D091730380917003909171030C0F1D1FFB
:102E9000009709F498C02091740331E03093A9029F
:102EA0002093A8021092A7021092A602DC01ED91D5
:102EB000FC910190F081E02D60E40995EE24E3940B
:102EC000F12CDD24D39480917003909171030C1741
:102ED0001D0709F44FC0B0E2EB16F104D8F00E94D0
:102EE000E914809170039091710320917403D09242
:102EF000A9022093A8021092A7021092A602DC0158
:102F0000ED91FC910190F081E02D60E40995EE24B3
:102F1000E394F12C80917003909171036991DC012D
:102F2000ED91FC910190F081E02D0995BFEFEB1A36
:102F3000FB0AC9CF80916E0390916F03892B31F00A
:102F400080919103909192030E94AA0BE0918203D9
:102F5000F0918303908180918703809589238083FA
:102F60005CCF60E083E593E00E9485166091570393
:102F7000615068CF0E94E9148091700390917103B1
:102F8000892B09F461C020918C0330918D0340910D
:102F90008E0350918F0360E074E284EF90E00E9412
:102FA0008730205131094109510956954795379588
:102FB00027952093B800DF91CF911F910F91FF903B
:102FC000EF90DF900895E0918003F091810380817C
:102FD00090918603892B80830C171D0769F28991D4
:102FE00020916E0330916F03232B19F00E94A30BE5
:102FF000F3CF28E030E040E8E0917C03F0917D03DE
:1030000090918403582F5423D9F05081952B9083AD
:10301000E0917E03F0917F03908150918503952B81
:103020009083E0917E03F0917F035081909185031E
:10303000909595239083469521503109E9F6CCCFA0
:10304000508190959523E3CFE0918203F091830323
:10305000808190918703892B8083ADCF1F93CF937D
:10306000DF93EC01162F8D8D9E8D892BB1F12DA94B
:103070003EA94FA958AD60E074E284EF90E00E9451
:1030800087302051310941095109569547953795A7
:1030900027952093B80066EA111167EACE010E94D5
:1030A00085168D8D9E8D892B41F129AD3AAD4BADA5
:1030B0005CAD60E074E284EF90E00E9487302051C4
:1030C0003109410951095695479537952795209320
:1030D000B800DF91CF911F9108958B8D9C8D892B26
:1030E00021F08EAD9FAD0E94AA0BEFA5F8A99081AB
:1030F0008CA9809589238083CECFEFA5F8A9808104
:103100009CA9892B8083E5CF90E080E00895CF9241
:10311000DF92EF92FF920F931F93CF93DF93EC0117
:103120006B0146305105F1F406967B0128E0E20E72
:10313000F11C9B012C5F3F4F8C01AE010E9481105E
:103140002C96D0936003C0935F03D0926203C09229
:103150006103DF91CF911F910F91FF90EF90DF906E
:10316000CF900895BC016B5F7F4F01E010E027E036
:1031700030E0A60183E593E00E94630AD0936003E8
:10318000C0935F03D0926203C092610367E571E070
:1031900083E593E0DF91CF911F910F91FF90EF9026
:1031A000DF90CF900C94E907CF92DF92EF92FF92DD
:1031B0000F931F93CF93DF93EC016B0147305105C1
:1031C00001F57B0188E0E80EF11C9B012C5F3F4F6D
:1031D000AE014A5F5F4F8E01CE010E9481102C9696
:1031E000D0936003C0935F03D0926203C0926103E7
:1031F000DF91CF911F910F91FF90EF90DF90CF90D3
:10320000089501E010E027E030E0AB01BC0183E568
:1032100093E00E94630AD0936003C0935F03D0924F
:103220006203C092610366E37DE083E593E0DF9192
:10323000CF911F910F91FF90EF90DF90CF900C9462
:10324000E907FB0101900020E9F73197AF01461B28
:10325000570BDC01ED91FC910280F381E02D099484
:103260008F929F92AF92BF92EF92FF920F931F9314
:10327000CF93DF93CDB7DEB7A1970FB6F894DEBF3B
:103280000FBECDBF7C01FA01CB0119A2223008F498
:103290002AE08E010F5D1F4F822E912CB12CA12CA4
:1032A000BF01A50194010E948730F901CA016A306B
:1032B0000CF5605DD8016E938D01232B242B252BFB
:1032C00079F790E080E0109721F0BD01C7010E94DE
:1032D0002119A1960FB6F894DEBF0FBECDBFDF91C6
:1032E000CF911F910F91FF90EF90BF90AF909F9063
:1032F0008F900895695CDECFCF92DF92EF92FF92BC
:103300000F931F93CF93DF936B01770FEE08FF08A6
:10331000F7FE1BC0EC016DE20E94E2078C0144271E
:103320005527BA014C195D096E097F092AE0CE01C3
:103330000E943019800F911FDF91CF911F910F9143
:10334000FF90EF90DF90CF9008952AE0B701A6019B
:10335000DF91CF911F910F91FF90EF90DF90CF9071
:103360000C9430192F923F924F925F926F927F92FE
:103370008F929F92AF92BF92CF92DF92EF92FF9285
:103380001F93CF93DF93EC016A017B01722EAB0197
:103390009601CB01B6010E941E3264E771E08111F3
:1033A00026C046015701E894B7F82FEF3FEF4FE7EB
:1033B0005FE7C501B4010E941E3281110CC02FEFDE
:1033C0003FEF4FE75FE7C501B4010E94F42E68E7C5
:1033D00071E0181664F02FEF3FEF4FE75FE4C7018D
:1033E000B6010E9411321816B4F46CE771E0CE01F8
:1033F000DF91CF911F91FF90EF90DF90CF90BF9022
:10340000AF909F908F907F906F905F904F903F9084
:103410002F900C9421192FEF3FEF4FE75FECC7017E
:10342000B6010E94F42E87FDE0CF20E030E0A90134
:10343000C701B6010E94F42E312C212C87FF09C050
:103440006DE2CE010E94E2071C01F7FAF094F7F852
:10345000F09410E060E070E080E09FE3711641F0CE
:1034600020E030E040E251E40E942A311F5FF6CFB5
:10347000A70196010E94B9302B013C010E94A331A3
:103480004B015C012AE0BC01A401CE010E9430196D
:103490007C01E20CF31C1123C1F1C501B4010E94AF
:1034A000F92E9B01AC01C301B2010E94B8304B015F
:1034B0005C016EE2CE010E94E207E80EF91E115097
:1034C00020F120E030E040E251E4C501B4010E9467
:1034D0005A2F2B013C010E94A3314B01B12CA12C8E
:1034E0002AE0B501A401CE010E943019E80EF91EB0
:1034F000C501B4010E94F92E9B01AC01C301B201C8
:103500000E94B8304B015C01DACFC701DF91CF9147
:103510001F91FF90EF90DF90CF90BF90AF909F9062
:103520008F907F906F905F904F903F902F90089575
:103530008F929F92AF92BF92EF92FF920F931F9341
:103540006091D4017091D50180919502909196027D
:10355000681B790B072E000C880B990B0E94FB2E21
:1035600020E030E040E253E40E945A2F4B015C011E
:1035700060919102709192028091930290919402D5
:103580000E94F92E9B01AC01C501B4010E942A31B1
:103590004B015C01F12CE12C00E110E020E830E06F
:1035A00050E040E070E060E083E593E00E94AE0F01
:1035B00020E030E0A901C501B4010E9411321816C3
:1035C0007CF582E0809367038093680382E290E059
:1035D0009093600380935F031092620310926103E3
:1035E00020E0B501A40183E593E00E94B21964E5EF
:1035F00071E083E593E00E94E9076CE471E08AEAF8
:1036000092E00E94E90720E0B501A4018AEA92E075
:103610000E94B21960E871E08AEA92E00E942119E2
:103620001F910F91FF90EF90BF90AF909F908F9060
:103630000C94E7160F931F93CF93DF93EC010E9436
:10364000E9078C0160E871E0CE010E942119800F2A
:10365000911FDF91CF911F910F910895CF92DF922B
:10366000EF92FF92CF93DF930E94D4076093D4012F
:103670007093D5018093D6019093D701609100019A
:1036800070910101072E000C880B990B0E94FB2EF4
:103690002091CC013091CD014091CE015091CF01CC
:1036A0000E94F42E87FF04C060E088E00E941E079D
:1036B0000E94D4076B017C01D0E0C0E087E00E944B
:1036C000F506019731F486E00E94F50621960197F0
:1036D00061F00E94D4076093D4017093D501809368
:1036E000D6019093D701D0E0C0E061E070E080E0C7
:1036F00090E00E94A2070E94D4076C197D098E09F0
:103700009F09613D77408105910520F061E088E0E7
:103710000E941E07C03A2FE0D20781F662EF70E0E8
:103720008AEA92E0DF91CF91FF90EF90DF90CF9007
:103730000C941A1B6115710511F00C94211990E07D
:1037400080E00895CF92DF92EF92FF92CF93DF93C4
:10375000EC01079709F0B8C08091D2019091D30194
:1037600001969093D3018093D20160919102709160
:10377000920280919302909194020E94F92E6B0123
:103780007C016091020170910301072E000C880BEF
:10379000990B0E94FB2E20E030E040E253E40E94AF
:1037A0005A2FA70196010E942A3126E636E646E600
:1037B00050E40E945A2F6093CC017093CD01809306
:1037C000CE019093CF016CEE70E08AEA92E00E9405
:1037D000E907409191025091920260919302709199
:1037E00094022AE08AEA92E00E9430196AEE70E0C0
:1037F0008AEA92E00E94E907A701960160E070E082
:1038000080E293E40E942A31AB01BC0124E08AEA01
:1038100092E00E94B21968EE70E08AEA92E00E949B
:10382000E9074091CC015091CD016091CE0170919A
:10383000CF0121E08AEA92E00E94B21966EE70E0C0
:103840008AEA92E00E94E907609102017091030107
:103850008AEA92E00E947C1964EE70E08AEA92E0C3
:103860000E94E90765E871E0279711F463E871E0C9
:103870008AEA92E00E949A1B62EE70E08AEA92E085
:103880000E94E9076091D2017091D3018AEA92E027
:103890000E947C1960EE70E08AEA92E00E94E907DB
:1038A0006091D0017091D1018AEA92E00E947C1966
:1038B00060E871E08AEA92E0DF91CF91FF90EF90AB
:1038C000DF90CF900C9421198091D0019091D1017B
:1038D00001969093D1018093D00147CF64EA70E0C4
:1038E0008AEA92E00E94E907609102017091030167
:1038F0008AEA92E00E947C196CE970E08AEA92E020
:103900000E94E90760910001709101018AEA92E04A
:103910000E947C1964E970E08AEA92E00E94E9075B
:1039200060918F02709190028AEA92E00E947C1965
:103930006BE870E08AEA92E00E94E9076091040176
:10394000709105018AEA92E00E947C1966E870E0B5
:103950008AEA92E00E94E9076CE071E08AEA92E06C
:103960000E94211960E871E08AEA92E00C94211922
:103970002091590330915A03C901079697FD079684
:1039800023E0959587952A95E1F72091570330918B
:103990005803829FA001839F500D929F500D1124C8
:1039A00070E060E080917203909173030C949934FD
:1039B000AF92BF92CF92DF92EF92FF920F931F933D
:1039C000CF93DF930E94B81CC3E5D3E082E0C82EFA
:1039D000CC8ACD8A85E290E09D878C871F861E86E3
:1039E00069E471E0CE010E94E9079CE3A92EB12CA5
:1039F000BD86AC861F861E86609102017091030110
:103A0000CE010E947C19DD24D394DC8ADD8A1D86D8
:103A10001C8688E190E09F878E8760E471E0CE018C
:103A20000E94E907CC8ACD8ABD86AC8684E190E00D
:103A30009F878E8720E040E050E060E273E4CE0193
:103A40000E94B219DC8ADD8A8C859D8503969D874C
:103A50008C878CE190E09F878E876DE371E0CE01CB
:103A60000E94E90728E1E22EF12C00E210E02CE2AE
:103A70003CE048E250E06AE070E0CE010E94601253
:103A8000CC8ACD8ABD86AC868CE290E09F878E87FB
:103A90006091000170910101CE010E947C19DC8AC5
:103AA000DD8A8C859D8503969D878C8784E390E0D5
:103AB0009F878E8768E371E0CE010E94E907DF915E
:103AC000CF911F910F91FF90EF90DF90CF90BF901B
:103AD000AF900C94E7160F931F93CF93DF938C0155
:103AE000C091D201D091D301079721F0C091D001AC
:103AF000D091D10121960E94B81C82E08093670387
:103B00008093680382E290E09093600380935F0368
:103B1000109262031092610362E371E083E593E027
:103B20000E94E90783E0809367038093680385E23E
:103B300090E09093600380935F0382E190E0909324
:103B4000620380936103C436D1055CF48EE290E099
:103B5000CA30D10514F487E390E09093600380931A
:103B60005F03BE0183E593E00E947C1982E08093AD
:103B700067038093680384E090E0909360038093F0
:103B80005F0380E390E090936203809361036EE1B2
:103B900071E00730110511F468E271E083E593E00C
:103BA0000E94E907DF91CF911F910F910C94E716C6
:103BB0004F925F926F927F928F929F92AF92BF923D
:103BC000CF92DF92EF92FF920F931F93CF93DF93E9
:103BD0006C010E94B81C8090CC019090CD01A09007
:103BE000CE01B090CF0120E030E04AE754E4C501B7
:103BF000B4010E94F42E87FF5BC185E080936703C8
:103C0000809368031092600310925F0388E190E054
:103C1000909362038093610320E030E048EC52E42B
:103C2000C501B4010E94F42E87FF06C084E190E034
:103C30009093600380935F0320E030E040E251E422
:103C4000C501B4010E94F42E87FF06C083E290E014
:103C50009093600380935F0320E0B501A40183E5A6
:103C600093E00E94B21981E0809367038093680318
:103C700081E690E09093600380935F0382E390E09D
:103C800090936203809361036DEF70E083E593E0AE
:103C90000E94E9078091D2019091D301A6016AE1C7
:103CA00070E00A970CF014C187E690E00E94D418E7
:103CB0006091D2017091D30183E593E00E947C1959
:103CC0008091D0019091D101A60166E270E00A973F
:103CD0000CF001C187E690E00E9487186091D00146
:103CE0007091D10183E593E00E947C198090990244
:103CF00090909A02A0909B02B0909C0227E0C2167E
:103D0000D10409F0EBC08091C8019091C901A09144
:103D1000CA01B091CB01A5019401281B390B4A0BB4
:103D20005B0BCA01B90128EE33E040E050E00E948D
:103D3000873069017A018092C8019092C901A092EE
:103D4000CA01B092CB01C701B6012CE330E040E0DC
:103D500050E00E94873029014B01EB0182E0809303
:103D60006703809368031092600310925F031092C0
:103D70006203109261033AE0431651042CF460E3AD
:103D800083E593E00E94E207B20183E593E00E949D
:103D90007C196AE383E593E00E94E2072A972CF4FA
:103DA00060E383E593E00E94E207B40183E593E0DA
:103DB0000E947C1901E010E020E830E041E150E091
:103DC00070E060E083E593E00E94AC0A20E130E01F
:103DD00050E040E060E470E083E593E00E94630A15
:103DE000B601DD0C880B990B0E94FB2E20E030E021
:103DF00040E253E40E945A2F6B017C0160919102D2
:103E00007091920280919302909194020E94F92EF7
:103E10009B01AC01C701B6010E942A316B017C01F4
:103E200082E0809367038093680320E030E040E203
:103E300051E4C701B6010E94F42E87FD70C087E4EB
:103E400090E09093600380935F031092620310925E
:103E5000610321E0B701A60183E593E00E94B21956
:103E600081E0809367038093680389E790E09093F3
:103E7000600380935F0388E090E0909362038093F7
:103E800061036DE683E593E00E94E207DF91CF9145
:103E90001F910F91FF90EF90DF90CF90BF90AF9068
:103EA0009F908F907F906F905F904F900C94E7164B
:103EB00086E2E82EF12C00E310E029E23BE048E145
:103EC00050E065E170E083E593E00E946012CBCEA4
:103ED00081E690E0EBCE81E690E0FECE8091C401D9
:103EE0009091C501A091C601B091C701A5019401AF
:103EF000281B390B4A0B5B0BCA01B90128EE33E0D2
:103F000040E050E00E94873069017A018092C4014C
:103F10009092C501A092C601B092C70114CF83E56B
:103F200090E08FCF0E948B34FC01808191810097BB
:103F300011F00C94AF2E60E070E0CB010895FC010D
:103F400080819181009711F00C9445330895FC0114
:103F500024813581232B39F421E0FB0180818823E2
:103F600049F020E007C0808191810E94AB3421E0BC
:103F7000892BB9F7822F08950F931F93CF93DF9367
:103F8000EC0188819981009759F02A813B8126179D
:103F9000370730F081E0DF91CF911F910F910895A5
:103FA0008B016F5F7F4F0E94CE33009759F099834A
:103FB00088831B830A832C813D81232B59F7FC01C5
:103FC0001082E8CF80E0E7CFEF92FF920F931F932C
:103FD000CF93DF93EC017B018A01BA010E94BC1FE1
:103FE00028813981811114C02115310519F0C901C9
:103FF0000E944533198218821D821C821B821A82FC
:10400000CE01DF91CF911F910F91FF90EF90089516
:104010001D830C83B701C9010E94B434F1CF50E075
:1040200040E062E871E00C94E41FAF92BF92CF923F
:10403000DF92EF92FF920F931F93CF93DF93EC01E8
:104040006B015A0179012417350720F48B2D590192
:10405000E42EF82E198218821B821A821D821C827D
:10406000CE010E940F20D60114960D911C91A0162E
:10407000B10628F5E016F10608F48701D601ED91A6
:10408000FC911197E00FF11FF08010826D917C91EF
:104090006A0D7B1D61157105F1F0FB010190002097
:1040A000E9F73197AF01461B570BCE010E94E41F81
:1040B000F60180819181080F191FD801FC92CE0171
:1040C000DF91CF911F910F91FF90EF90DF90CF90F4
:1040D000BF90AF90089588819981009711F00E9458
:1040E0004533198218821D821C821B821A82E0CFFE
:1040F00085ED8093BC008091190290911A02A091E5
:104100001B02B0911C020796A11DB11D23E0B695BC
:10411000A795979587952A95D1F72091BC0024FD06
:1041200003C01092620208954091190250911A0240
:1041300060911B0270911C02452B462B472B69F3A3
:104140000097A105B10541F02AE22A95F1F700C0D8
:104150000197A109B109E1CF809118020C94431491
:104160001F93CF93DF93EC01162F0E941B3018177B
:1041700039F0612FCE01DF91CF911F910C94233044
:10418000DF91CF911F9108950C941B302F923F9295
:104190004F925F926F927F928F929F92AF92BF9257
:1041A000CF92DF92EF92FF920F931F93CF93DF9303
:1041B00000D000D000D0CDB7DEB79A8389830E94AB
:1041C000B81CC090CC01D090CD01E090CE01F09011
:1041D000CF0120E030E04AE754E4C701B6010E9475
:1041E000F42E87FF34C082E08093670380936803D6
:1041F0001092600310925F031092620310926103A9
:1042000020E030E048EC52E4C701B6010E94F42EF1
:1042100087FF06C08CE090E09093600380935F037B
:1042200020E030E040E251E4C701B6010E94F42EE4
:1042300087FF06C088E190E09093600380935F035E
:1042400020E0B701A60183E593E00E94B21986E65B
:1042500090E09093600380935F031092620310924A
:10426000610380910201909103018C3D910509F455
:1042700028C2803A910509F427C28837910509F4CC
:1042800026C28735910509F425C28D9769F484E02B
:1042900090E0880F991FFC01E05FFE4F6081718103
:1042A00083E593E00E949A1B81E0809367038093EB
:1042B000680388E290E09093600380935F0386E058
:1042C00090E0909362038093610369E171E083E57C
:1042D00093E00E94E90789E290E00E94D31285E210
:1042E00090E00E94D3121EE0E12EF12CF0926003C8
:1042F000E0925F0306E310E0109362030093610312
:1043000067E171E083E593E00E94E907F0926003C2
:10431000E0925F0385E2E82EF12CF0926203E092D6
:10432000610364E171E083E593E00E94E9079EE1A7
:10433000A92EB12CB0926003A0925F0323E1C22E9C
:10434000D12CD0926203C092610361E171E083E5F8
:1043500093E00E94E9078BE390E0909360038093E1
:104360005F03B0926203A09261036EE071E083E5A7
:1043700093E00E94E90788E590E0909360038093C2
:104380005F03D0926203C09261036AE071E083E54B
:1043900093E00E94E90788E690E0909360038093A1
:1043A0005F03F0926203E092610366E071E083E5EF
:1043B00093E00E94E9078DE690E09093600380937C
:1043C0005F03109362030093610362E071E083E591
:1043D00093E00E94E90729813A812730310509F0ED
:1043E000C7C147E050E060E170E088E790E00E94DC
:1043F000D41886EA9FEF9E838D83BEE12B2E312C4D
:104400002D813E81B901330F880B990B0E94FB2E41
:1044100021EE3EE245E652E40E942A316B017C0126
:104420000E9416324B015C0120E030E040E252E491
:104430000E945A2F20E030E040E852E40E94B93058
:104440000E949C312B01C701B6010E9425316B01EE
:104450007C0120E030E040E252E40E945A2F9B01B0
:10446000AC0160E070E088E792E40E94B8300E94FE
:104470009C3169837A838B839C838D819E81B1017A
:104480000E946C32892B09F428C120E030E048E119
:1044900052E4C501B4010E945A2F20E030E040E808
:1044A00052E40E94B9300E949C315B0120E030E070
:1044B00048E152E4C701B6010E945A2F9B01AC01AA
:1044C00060E070E088E792E40E94B8300E949C317E
:1044D000EE24E394F12C8B01950149815A81B201BC
:1044E00083E593E00E9450138D819E810A969E83FE
:1044F0008D838436910509F083CFC090CC01D09094
:10450000CD01E090CE01F090CF0120E030E045E316
:1045100053E4C701B6010E94F42E87FFF7C0C7011C
:10452000B6010E949C316A55710981099109072ED3
:10453000000C880B990B0E94FB2E21EE3EE245E613
:1045400052E40E942A316B017C010E9416322B0139
:104550003C01C701B6010E94253120E030E040E077
:1045600052E40E945A2F9B01AC0160E070E088E7A2
:1045700092E40E94B8300E949C314B0120E030E070
:1045800040E052E4C301B2010E945A2F20E030E023
:1045900040E852E40E94B9300E949C31EE24E3943A
:1045A000F12C84019B014EE350E060E470E083E570
:1045B00093E00E94501301E010E02BE030E049E36B
:1045C00050E060E470E083E593E00E944D124424E3
:1045D0004394512CF12CE12C75E0672E712C25E0D1
:1045E00030E03A832983E6EF2E2E33243A94FCEF11
:1045F000CF2EDD24DA943FEFE31AF30A82E0480E6F
:10460000511CC40CD51C29813A812E153F050CF490
:10461000B8C04901880C991C3FEF831A930A01E046
:1046200010E094014EE3A42EB12C89819A81A81A3E
:10463000B90AA501B701605C7F4F83E593E00E9452
:104640004D129401A50160E470E06E197F0983E5C5
:1046500093E00E944D1229813A8162167306F1F0AF
:10466000B301605C7F4F01E010E0420132E0831A49
:10467000910894018FE3A82EB12CAE18BF08A501B4
:1046800083E593E00E944D1260E470E066197709BB
:104690009401A50183E593E00E944D1289819A81DE
:1046A000E816F9060CF04AC0D7FC2DC0019722E0AD
:1046B000220E311CC20CD31C69807A809A838983B4
:1046C0009ACF90E080E0E5CD81E090E0E2CD82E01D
:1046D00090E0DFCD83E090E0DCCD20E030E048E00A
:1046E00052E4C501B4010E945A2F20E030E040E8B6
:1046F00052E40E94B9300E949C315B0120E030E01E
:1047000048E052E4D7CE89819A81D6CF82E0809367
:1047100067038093680382E390E090936003809343
:104720005F0380E390E0909362038093610320E055
:10473000B701A60183E593E00E94B21926960FB651
:10474000F894DEBF0FBECDBFDF91CF911F910F91C7
:10475000FF90EF90DF90CF90BF90AF909F908F90A1
:104760007F906F905F904F903F902F900C94E71642
:1047700046E050E060E170E090E080E00E94871841
:1047800038CE89819A816816790609F069CFD6CF2B
:10479000AF92BF92CF92DF92EF92FF920F931F934F
:1047A000CF93DF93CDB7DEB762970FB6F894DEBF35
:1047B0000FBECDBF8AEA92E00E949D08892B09F4C2
:1047C000C8C01A8219821C821B821E821D82CE01E1
:1047D00001960E940F200E945D080D811E8197FDA9
:1047E0001CC08A309105C9F08F8318860F5F1F4F58
:1047F000B801CE0101960E94BC1F882361F3298174
:104800003A818D819E81BE01695F7F4F820F931F28
:104810000E94B4341E830D83DECFC980DA80C114B8
:10482000D10421F076010115110589F5CD80DE80D6
:10483000C114D10409F489C0E980FA806BE370E007
:10484000C7010E94A034009739F08C010E191F098E
:104850000F3F100709F051C018861F821A8619866B
:104860001C861B86E114F10431F0A601B701CE01CC
:1048700007960E94E41F1E861D86188A1F861A8AC4
:10488000198ACE010D960E940F204DC07501570167
:104890002FEFA21AB20AF7018081082E000C990BA3
:1048A0000E94EB2E892B91F7015011090C0D1D1D53
:1048B000F8018081082E000C990B0E94EB2E892BA9
:1048C00031F00E151F0518F001501109F1CFA801A4
:1048D0004F5F5F4F4E195F095E834D83CE14DF0437
:1048E00020F4B701C6010E949034E981FA818D81DC
:1048F0009E81E80FF91F108299CF980150E040E0A7
:10490000BE016F5F7F4FCE0107960E9415202D815B
:104910003E81A8014F5F5F4FBE016F5F7F4FCE01A9
:104920000D960E94152067E871E0CE0107960E945F
:10493000A71F8823F9F00E946E1CCE010D960E94DD
:104940009F1FCE0107960E949F1FCE0101960E94D5
:104950009F1F62960FB6F894DEBF0FBECDBFDF91EA
:10496000CF911F910F91FF90EF90DF90CF90BF906C
:10497000AF90089560E971E0CE0107960E94A71FED
:104980008823E9F0CE010D960E94941FCB016C3D67
:10499000710561F0603A710549F06837710531F0D1
:1049A0006735710519F06D32710539F69093030181
:1049B0008093020190E080E00E94B020BCCF6AE9C1
:1049C00071E0CE0107960E94A71F8823B9F0CE019F
:1049D0000D960E94941F683E23E0720708F0ADCF49
:1049E0006093000170930101672F81E090E00E94C5
:1049F000B0206091000182E090E0DECF64EA71E0D7
:104A0000CE0107960E94A71F882379F0CE010D964C
:104A10000E94941F6230710508F08FCF709390024E
:104A200060938F0283E090E0C7CF6EEA71E0CE0121
:104A300007960E94A71F882309F47FCFCE010D9609
:104A40000E94941F41E0672B09F440E0242F30E0DE
:104A50003093050120930401642F84E090E0ACCFF3
:104A6000CF93DF9362ED70E08AEA92E00E941A1B16
:104A70000E94B81C82E08093670380936803C4E0BF
:104A8000D0E0D0936003C0935F0384E190E0909303
:104A900062038093610369EC70E083E593E00E9418
:104AA0001A1BD0936003C0935F0388E290E0909359
:104AB0006203809361036CEB70E083E593E00E94F6
:104AC000E9070E94E71687E00E94F506892B49F462
:104AD0000E94C82362E370E080E090E00E94A20799
:104AE000F2CF86E00E94F506892B91F360EB70E02F
:104AF0008AEA92E00E941A1BDF91CF910C94D81C95
:104B0000CF92DF92EF92FF92CF93C82F0E94D407EB
:104B10006B017C018C2F0E94F5060197A1F40E9485
:104B2000C8230E94D4076C197D098E099F0961363C
:104B30007A4E8105910570F380E0CF91FF90EF9060
:104B4000DF90CF90089581E0F8CF1F920F920FB6BB
:104B50000F9211242F933F938F939F93AF93BF9303
:104B600080919E0290919F02A091A002B091A1021B
:104B700030919D0223E0230F2D3758F50196A11D9A
:104B8000B11D20939D0280939E0290939F02A0935B
:104B9000A002B093A1028091A2029091A302A091E1
:104BA000A402B091A5020196A11DB11D8093A2029D
:104BB0009093A302A093A402B093A502BF91AF91DA
:104BC0009F918F913F912F910F900FBE0F901F904B
:104BD000189526E8230F0296A11DB11DD2CF1F9272
:104BE0000F920FB60F9211242F933F934F935F9321
:104BF0006F937F938F939F93AF93BF93EF93FF93A5
:104C00008AEA92E00E94BD08FF91EF91BF91AF91B7
:104C10009F918F917F916F915F914F913F912F91D4
:104C20000F900FBE0F901F9018951F920F920FB606
:104C30000F9211242F938F939F93EF93FF93E09103
:104C4000BA02F091BB028081E091C002F091C102F2
:104C500082FD1BC090818091C3028F5F8F73209172
:104C6000C402821741F0E091C302F0E0E655FD4F27
:104C7000958F8093C302FF91EF919F918F912F9118
:104C80000F900FBE0F901F9018958081F4CF1F9248
:104C90000F920FB60F9211242F933F934F935F9370
:104CA0006F937F938F939F93AF93BF93EF93FF93F4
:104CB0008091B900887F803609F44AC0F0F58832C7
:104CC00009F4A7C018F5803109F49BC0B8F4882313
:104CD00009F4F9C0883009F494C0FF91EF91BF91B5
:104CE000AF919F918F917F916F915F914F913F9184
:104CF0002F910F900FBE0F901F901895883109F4D7
:104D000088C0803251F78093610214C0803409F466
:104D10009DC040F48033B9F38833F9F68093610283
:104D200085ECB0C0803509F485C0883509F496C09B
:104D3000883499F60E947820D0CF883909F48CC045
:104D400038F5883729F050F4883611F0803729F685
:104D500083E0809362021092600257C0883809F4A1
:104D60007BC0803919F0803809F0B7CF809160029C
:104D7000803208F071C0E091600281E08E0F809374
:104D800060028091BB00F0E0E05CFD4F80833DC09D
:104D9000803B39F0E0F4803A09F479C0883A09F0B0
:104DA0009CCF84E08093620210923F0210923E02F8
:104DB000E0918B02F0918C02099580913E02811165
:104DC0000FC081E080933E0210921E0209C0803C19
:104DD00009F4A6CF883C09F4A3CF883B09F07DCF26
:104DE000E0913F0281E08E0F80933F02F0E0E25EAF
:104DF000FD4F80818093BB0090913F0280913E02E5
:104E000029C0809187028093BB0085EC8093BC0011
:104E100064CF9091860280918502981758F5E091B1
:104E2000860281E08E0F80938602F0E0EB59FD4F01
:104E30008081E9CFE091860281E08E0F8093860227
:104E40008091BB00F0E0EB59FD4F8083909186028A
:104E5000809185029817C8F285E8D8CFE091860244
:104E600081E08E0F809386028091BB00F0E0EB59C9
:104E7000FD4F80838091640281115CCF81E080933B
:104E8000630284EA8093BC001092620226CF85EC14
:104E90008093BC001092620280916002803230F4F4
:104EA000E0916002F0E0E05CFD4F108260916002F2
:104EB00070E0E0918902F0918A0280E492E0099525
:104EC000109260020ACF1092610234CFEAEAF2E057
:104ED0001382128248EE53E060E070E04483558311
:104EE0006683778388E291E09183808385EC90E00C
:104EF0009587848784EC90E09787868780EC90E0A4
:104F0000918B808B81EC90E0938B828B82EC90E094
:104F1000958B848B86EC90E0978B868B118E128E0E
:104F2000138E148EA7E4B3E013961C921E92129770
:104F300014964D935D936D937C9317978AE391E05C
:104F400011969C938E93E3E5F3E01382128220E89E
:104F500030E03583248380E490E097838683318733
:104F6000208793878287168A158614861786168669
:104F700081E0858B848B2FEF3FEF338B228B318B3E
:104F8000208B878B108E128E118E8CE491E0918392
:104F90008083148E138EB68FA58F10A2178E8FEF7D
:104FA00084A385A386A387A384E080A780E89AE1F1
:104FB000A6E0B0E085AB96ABA7ABB0AF80EA96E8D1
:104FC000A1E0B0E081AF92AFA3AFB4AF80E586AF10
:104FD00017AE0895789484B5826084BD84B58160ED
:104FE00084BD85B5826085BD85B5816085BD8091B4
:104FF0006E00816080936E0010928100809181002C
:105000008260809381008091810081608093810023
:10501000809180008160809380008091B1008460E5
:105020008093B1008091B00081608093B000809146
:105030007A00846080937A0080917A008260809305
:105040007A0080917A00816080937A0080917A0062
:10505000806880937A001092C10062E087E00E942D
:105060004C0762E086E00E944C0761E088E00E9405
:105070004C0761E088E00E941E07E091BA02F091BF
:10508000BB0282E08083E091B602F091B702108209
:10509000E091B802F091B9028FEC80831092C202C5
:1050A000E091BE02F091BF0286E08083E091BC02F5
:1050B000F091BD02808180618083E091BC02F0911B
:1050C000BD02808188608083E091BC02F091BD02C6
:1050D000808180688083E091BC02F091BD02808174
:1050E0008F7D808390E080E00E94C42090E08C3D22
:1050F000910571F0803A910559F08837910541F09A
:105100008735910529F08D32910511F088E790E0FF
:10511000909303018093020181E090E00E94C420FB
:10512000C82F82E090E00E94C4209C2F9093010140
:1051300080930001883E934030F087EE93E0909397
:1051400001018093000183E090E00E94C42021E0EF
:1051500030E0813011F030E020E030939002209375
:105160008F0284E090E00E94C42021E030E08111B1
:1051700002C030E020E030930501209304018091CB
:10518000720390917303892B39F10E94B81C8091AE
:10519000590390915A0360915703709158038132DB
:1051A00091050CF042C0AC014052510957FF02C0BA
:1051B0004F5F5F4F559547956357710977FF02C061
:1051C0006F5F7F4F7595679590E2E92EF12C03E7AD
:1051D00010E02CE736E041C02091590330915A038A
:1051E000C901079697FD0796A3E095958795AA951F
:1051F000E1F72091570330915803AC01429FC00161
:10520000439F900D529F900D11240E94A9329093BC
:10521000730380937203892B09F0B7CF6DE07CE0B4
:105220008AEA92E00E941A1B04C1AC014054510961
:1052300057FF02C04F5F5F4F559547956255710903
:1052400077FF02C06F5F7F4F75956795E0E4EE2EA4
:10525000F12C02E510E02CE538E083E593E00E94B4
:10526000601282E0809375038091700390917103C6
:10527000892B09F457C18CE38093740310928E023A
:1052800010928D021092A7021092A6020E9425147D
:1052900080EE97E090938C0280938B0281EE97E0F2
:1052A00090938A028093890280917B0387FD1EC0C0
:1052B00061E00E944C0761E080917B030E941E0721
:1052C00061E070E080E090E00E94A20760E08091E1
:1052D0007B030E941E076AE070E080E090E00E947D
:1052E000A20761E080917B030E941E0780917003FA
:1052F00090917103892B09F4D4C1209188033091D6
:10530000890340918A0350918B0360E074E284EF3B
:1053100090E00E948730205131094109510956958A
:105320004795379527952093B80064E088E796E085
:105330000E94D01560915903615083E593E00E946B
:10534000851664E084E796E00E94D015809175038D
:1053500060E1813009F064E183E593E00E94851605
:1053600064E080E796E00E94D0158FE88093900378
:1053700080915703909158038038910509F0A8C196
:105380008091590390915A038034910509F0B0C17E
:1053900080917503813009F0BEC18FE9809390033D
:1053A000C2E16AED83E593E00E9485166C2F83E5E8
:1053B00093E00E94851661E883E593E00E948516DC
:1053C0006091900383E593E00E94851669ED83E583
:1053D00093E00E9485168091750362E2813009F0A6
:1053E00061EF83E593E00E94851666E08AE696E029
:1053F0000E94D0158091700390917103892B09F45C
:105400008CC120918C0330918D0340918E0350917B
:105410008F0360E074E284EF90E00E9487302051B7
:10542000310941095109569547953795279520939C
:10543000B8000E94B81C81E090E0909366038093CE
:105440006503909364038093630356E2E52EF12C89
:1054500000E310E029E23BE049E150E068E270E05F
:1054600083E593E00E94601201E010E020E830E064
:1054700044E150E070E060E083E593E00E94AC0A14
:1054800082E0809367038093680384E090E09093C8
:10549000600380935F0310926203109261036EE1D8
:1054A0007BE083E593E00E941A1B81E08093670311
:1054B000809368038CE590E09093600380935F0392
:1054C0008CE090E090936203809361036CE17BE059
:1054D00083E593E00E94E9076CE071E083E593E0E7
:1054E0000E949A1B0E94E7166CED75E080E090E048
:1054F0000E94A2070E94D81C809102019091030192
:10550000803A910509F413C1D0E0C0E088379105D5
:1055100009F00FC1C2E0D0E08D9709F010C1C4E0DE
:10552000D0E00DC161E0809179030E944C0761E0F9
:1055300080917A030E944C0780917903082E000C19
:10554000990BFC01E650F34FE491F0E0EE0FFF1FE2
:10555000EA51F34F259134913093810320938003D6
:10556000FC01E25FF24FE491E093860380917A03BD
:10557000082E000C990BFC01E650F34FE491F0E08B
:10558000EE0FFF1FEA51F34FA591B491B09383033F
:10559000A0938203FC01E25FF24FE491E093870362
:1055A0008C91E82BEC9380916E0390916F03892B83
:1055B00009F434C0CFB7F89480918802811127C0D4
:1055C000E4E0FDE08491E8E1FDE09491E82FF0E073
:1055D000EE0FFF1FE452F34FA591B491EC91E92334
:1055E00021F461E08AE00E941E0761E08AE00E94E7
:1055F0004C078CB580618CBD8CB580648CBD61E03E
:105600008DE00E944C0761E08BE00E944C07809186
:1056100088028F5F80938802CFBF46CE61E0809181
:1056200077030E944C0761E0809178030E944C0749
:1056300080917703082E000C990BFC01E650F34F84
:10564000E491F0E0EE0FFF1FEA51F34F2591349102
:1056500030937D0320937C03FC01E25FF24FE491E1
:10566000E093840380917803082E000C990BFC01D1
:10567000E650F34FE491F0E0EE0FFF1FEA51F34FD5
:10568000A591B491B0937F03A0937E03FC01E25FE8
:10569000F24FE491E09385038C91E095E823EC933D
:1056A00003CE80916E0390916F03892B31F080912E
:1056B0009103909192030E94AA0BE0918203F091D2
:1056C00083039081809187038095892380832DCEE9
:1056D0008036910589F48091590390915A0340973F
:1056E00039F480917503813029F480E1809390032F
:1056F000C2E057CE8FEAFACF80349105C9F7809186
:10570000590390915A03809799F7809175038130DE
:1057100011F480E143CE8FEC41CEE0918203F09111
:105720008303808190918703892B808382CEC1E09F
:10573000D0E08735910509F0EFCEC3E0D0E087E0F7
:105740000E94F506892B09F0B4C086E00E94F50698
:10575000892B09F0AEC00E94D4074B015C010E9466
:10576000B81C82E080936703809368038AE090E02E
:105770009093600380935F0384E190E090936203D1
:105780008093610366EB7CE083E593E00E94E90788
:105790000E94E71687E00E94F506892B09F47BC07A
:1057A00086E00E94F506892B09F475C068EE73E067
:1057B00080E090E00E94A20742E0D42EF12CE12C80
:1057C00000E110E020E830E050E040E070E060E010
:1057D00083E593E00E94AE0FD0926703D0926803F6
:1057E00080E190E09093600380935F0310926203E6
:1057F00010926103C530D1050CF0B0C08E01000FCE
:10580000111FF801E05FFE4F6081718183E593E035
:105810000E949A1B62EB7CE083E593E00E94E9071B
:10582000F801E65EFE4F6081718183E593E00E949E
:105830007C190E94E71660E273E080E090E00E942D
:10584000A2070E94D4074B015C0110E00E94D4071C
:10585000681979098A099B0968387341810591059E
:1058600008F060C01111AACF87E00E94F506892BCD
:1058700029F4209709F489C0219711E086E00E945D
:10588000F506009709F07EC0C630D10511F0CE01B3
:10589000019611E078C00E94D407681979098A0935
:1058A0009B09693873418105910508F473CF0E9403
:1058B000D81C87E00E94F506892B09F0A0C10E9440
:1058C00030250E946E1CC0E0D0E00E94C82387E013
:1058D0000E94F506892B09F0D0C10E94D40760937D
:1058E000990270939A0280939B0290939C026EECB3
:1058F0007CE08AEA92E00E941A1B87E090E00E9416
:105900006B1D86E090E00E94802581117FC10E947E
:1059100030252097D1F20E94A9088823B1F20E9475
:105920000000D3CF11114ACFC530D1058CF5CC0F73
:10593000DD1FC65EDE4F688189816093020180931E
:10594000030190E080E00E94B0200E94D81C64EF28
:1059500071E080E090E00E94A207ABCF62E97CE0BA
:10596000C530D10551F480918F029091900265EA83
:105970007CE0019711F068E97CE083E593E00E9408
:10598000E90757CFCE01EC0161CFC6E0D0E075CF7B
:10599000259789F461E080918F02909190020197A0
:1059A00009F460E0862F90E09093900280938F023C
:1059B00083E090E0C8CF0E94B81C82E08093670328
:1059C0008093680382E290E09093600380935F038A
:1059D00010926203109261036CE87CE083E593E02F
:1059E0000E94E90701E010E020E830E042E150E0E9
:1059F00070E060E083E593E00E94AC0A88E1E82E65
:105A0000F12C00E210E02CE23CE042E250E06AE0DF
:105A100070E083E593E00E9460120E94E716E09137
:105A20000001F09101012AE030E0CF01B9010E94AC
:105A30006C326C01CB01B9010E946C325C01CF0168
:105A400064E670E00E946C32CB01B9010E946C32B6
:105A50004C01C2E0D0E09EE2292E312CF12CE12C49
:105A600004E110E029E630E046E250E064E370E053
:105A700083E593E00E94AE0F42E0409367034093BA
:105A8000680384E390E09093600380935F0386E271
:105A900090E09093620380936103B40183E593E007
:105AA0000E947C19B50183E593E00E947C19B60140
:105AB00083E593E00E947C1951E050936703509373
:105AC000680380915F039091600303969093600355
:105AD00080935F03309262032092610367E27CE06F
